:020000040800F2
:10000000000002204D2400089D2400089D240008C3
:100010009D2400089D2400089D2400080000000085
:100020000000000000000000000000009D24000807
:1000300000000000000000009D2400089D2400082E
:100040009D2400089D2400089D2400089D2400088C
:100050009D2400089D2400089D2400089D2400087C
:100060009D2400089D2400089D2400089D2400086C
:100070009D2400089D2400089D2400089D2400085C
:100080009D2400089D2400089D2400089D2400084C
:100090009D2400089D2400089D2400089D2400083C
:1000A0009D2400089D2400089D2400089D2400082C
:1000B0009D2400089D2400089D2400089D2400081C
:1000C0009D2400089D2400089D2400089D2400080C
:1000D0009D2400089D2400089D2400089D240008FC
:1000E0009D2400089D2400089D2400089D240008EC
:1000F0009D2400089D2400089D2400089D240008DC
:100100009D2400089D2400089D2400089D240008CB
:100110009D2400089D240008D11F00089D2400088C
:100120009D2400089D2400089D2400089D240008AB
:100130009D24000800000000000000009D2400082D
:100140009D2400089D2400089D2400089D2400088B
:100150009D2400089D2400089D2400089D2400087B
:100160009D2400089D2400089D2400089D2400086B
:100170009D2400089D2400089D2400080000000024
:10018000000000000000000000000000000000006F
:100190009D24000800000000000000009D240008CD
:1001A0000000000000000000000000009D24000886
:1001B0009D2400089D2400089D2400089D2400081B
:0401C0009D24000872
:1001D00010B5054C237833B9044B13B10448AFF381
:1001E00000800123237010BDC00600200000000025
:1001F000E082000808B5034B1BB103490348AFF385
:10020000008008BD00000000C4060020E082000855
:1002100081F0004102E000BF83F0004330B54FEAB7
:1002200041044FEA430594EA050F08BF90EA020F24
:100230001FBF54EA000C55EA020C7FEA645C7FEAB7
:10024000655C00F0E2804FEA5454D4EB5555B8BFDA
:100250006D420CDD2C4480EA020281EA030382EA4B
:10026000000083EA010180EA020281EA0303362DDD
:1002700088BF30BD11F0004F4FEA01314FF4801CB0
:100280004CEA113102D0404261EB410113F0004FC2
:100290004FEA03334CEA133302D0524263EB430379
:1002A00094EA050F00F0A780A4F10104D5F1200E17
:1002B0000DDB02FA0EFC22FA05F2801841F1000172
:1002C00003FA0EF2801843FA05F359410EE0A5F146
:1002D00020050EF1200E012A03FA0EFC28BF4CF077
:1002E000020C43FA05F3C01851EBE37101F000452D
:1002F00007D54FF0000EDCF1000C7EEB00006EEB3A
:100300000101B1F5801F1BD3B1F5001F0CD34908C3
:100310005FEA30004FEA3C0C04F101044FEA44521A
:1003200012F5800F80F09A80BCF1004F08BF5FEAA1
:10033000500C50F1000041EB045141EA050130BD81
:100340005FEA4C0C404141EB0101013C28BFB1F593
:10035000801FE9D291F0000F04BF01460020B1FADE
:1003600081F308BF2033A3F10B03B3F120020CDAB1
:100370000C3208DD02F1140CC2F10C0201FA0CF08F
:1003800021FA02F10CE002F11402D8BFC2F1200CF4
:1003900001FA02F120FA0CFCDCBF41EA0C019040AA
:1003A000E41AA2BF01EB0451294330BD6FEA0404F3
:1003B0001F3C1CDA0C340EDC04F11404C4F12002DE
:1003C00020FA04F001FA02F340EA030021FA04F3F0
:1003D00045EA030130BDC4F10C04C4F1200220FA47
:1003E00002F001FA04F340EA0300294630BD21FA85
:1003F00004F0294630BD94F0000F83F4801306BF4B
:1004000081F480110134013D4EE77FEA645C18BF3E
:100410007FEA655C29D094EA050F08BF90EA020FD5
:1004200005D054EA000C04BF1946104630BD91EACD
:10043000030F1EBF0021002030BD5FEA545C05D1D0
:100440004000494128BF41F0004130BD14F580040F
:100450003CBF01F5801130BD01F0004545F0FE4183
:1004600041F470014FF0000030BD7FEA645C1ABFB8
:10047000194610467FEA655C1CBF0B46024650EAEF
:10048000013406BF52EA033591EA030F41F400211B
:1004900030BD00BF90F0000F04BF0021704730B5A1
:1004A0004FF4806404F132044FF000054FF0000176
:1004B00050E700BF90F0000F04BF0021704730B537
:1004C0004FF4806404F1320410F0004548BF40420C
:1004D0004FF000013EE700BF42004FEAE2014FEA61
:1004E00031014FEA02701FBF12F07F4393F07F4F3C
:1004F00081F06051704732F07F4208BF704793F03F
:100500007F4F04BF41F40021704730B54FF4607451
:1005100001F0004521F000411CE700BF50EA010254
:1005200008BF704730B54FF000050AE050EA0102FD
:1005300008BF704730B511F0004502D5404261EB6D
:1005400041014FF4806404F132045FEA915C3FF4AE
:10055000D8AE4FF003025FEADC0C18BF03325FEA4B
:10056000DC0C18BF033202EBDC02C2F1200300FAFC
:1005700003FC20FA02F001FA03FE40EA0E0021FA21
:1005800002F11444BDE600BF4FEA4102B2F1E0437C
:1005900024BFB3F5001CDCF1FE5C0DD901F0004C6A
:1005A0004FEAC0024CEA5070B2F1004F40EB8300BA
:1005B00008BF20F00100704711F0804F21D113F1E6
:1005C0003872BCBF01F00040704741F480114FEA1F
:1005D0005252C2F11802C2F1200C10FA0CF320FAA8
:1005E00002F018BF40F001004FEAC1234FEAD323C5
:1005F00003FA0CFC40EA0C0023FA02F34FEA43032F
:10060000CCE77FEA625307D150EA01331EBF4FF0B7
:10061000FE4040F44000704701F0004040F0FE40D2
:1006200040F40000704700BF000000000000000020
:1006300001F0FF01102A2BDB10F0070F08D010F893
:10064000013B013A8B422DD010F0070F42B3F6D197
:10065000F0B441EA012141EA014122F007047FF0B0
:1006600000070023F0E80256083C85EA010586EA07
:10067000010685FA47F5A3FA87F586FA47F6A5FA43
:1006800087F68EB9EED1F0BC01F0FF0102F007024F
:1006900032B110F8013B013A83EA010313B1F8D1FA
:1006A0000020704701387047002D06BF35460338DB
:1006B000073815F0010F07D1013015F4807F02BF14
:1006C000013015F4C03F0130F0BC0138704700BF65
:1006D000034613F8012B002AFBD1181A0138704782
:1006E00070B54FF0FF0C4CF4E06C1CEA11541DBFC8
:1006F0001CEA135594EA0C0F95EA0C0F00F0DEF893
:100700002C4481EA030621EA4C5123EA4C5350EA77
:10071000013518BF52EA033541F4801143F48013C8
:1007200038D0A0FB02CE4FF00005E1FB02E506F059
:100730000042E0FB03E54FF00006E1FB03569CF0AE
:10074000000F18BF4EF0010EA4F1FF04B6F5007FB4
:1007500064F5407404D25FEA4E0E6D4146EB060626
:1007600042EAC62141EA55514FEAC52040EA5E50AF
:100770004FEACE2EB4F1FD0C88BFBCF5E06F1ED859
:10078000BEF1004F08BF5FEA500E50F1000041EB90
:10079000045170BD06F0004646EA010140EA02003D
:1007A00081EA0301B4EB5C04C2BFD4EB0C0541EA5F
:1007B000045170BD41F480114FF0000E013C00F374
:1007C000AB8014F1360FDEBF002001F0004170BD98
:1007D000C4F10004203C35DA0C341BDC04F11404B1
:1007E000C4F1200500FA05F320FA04F001FA05F23D
:1007F00040EA020001F0004221F0004110EBD3700A
:1008000021FA04F642EB06015EEA430E08BF20EA35
:10081000D37070BDC4F10C04C4F1200500FA04F3D8
:1008200020FA05F001FA04F240EA020001F000416A
:1008300010EBD37041F100015EEA430E08BF20EADD
:10084000D37070BDC4F1200500FA05F24EEA020E25
:1008500020FA04F301FA05F243EA020321FA04F054
:1008600001F0004121FA04F220EA020000EBD3700B
:100870005EEA430E08BF20EAD37070BD94F0000F0B
:100880000FD101F00046400041EB010111F4801F3F
:1008900008BF013CF7D041EA060195F0000F18BFF0
:1008A000704703F00046520043EB030313F4801F2C
:1008B00008BF013DF7D043EA0603704794EA0C0FE6
:1008C0000CEA135518BF95EA0C0F0CD050EA4106FC
:1008D00018BF52EA4306D1D181EA030101F0004179
:1008E0004FF0000070BD50EA410606BF10461946A1
:1008F00052EA430619D094EA0C0F02D150EA0136AD
:1009000013D195EA0C0F05D152EA03361CBF1046ED
:1009100019460AD181EA030101F0004141F0FE418C
:1009200041F470014FF0000070BD41F0FE4141F410
:10093000780170BD70B54FF0FF0C4CF4E06C1CEA10
:1009400011541DBF1CEA135594EA0C0F95EA0C0FC5
:1009500000F0A7F8A4EB050481EA030E52EA033580
:100960004FEA013100F088804FEA03334FF08055A1
:1009700045EA131343EA12634FEA022245EA1115CE
:1009800045EA10654FEA00260EF000419D4208BF7F
:10099000964244F1FD0404F5407402D25B084FEA2C
:1009A0003202B61A65EB03055B084FEA32024FF4D8
:1009B00080104FF4002CB6EB020E75EB030E22BF35
:1009C000B61A754640EA0C005B084FEA3202B6EBF5
:1009D000020E75EB030E22BFB61A754640EA5C00A4
:1009E0005B084FEA3202B6EB020E75EB030E22BF34
:1009F000B61A754640EA9C005B084FEA3202B6EB35
:100A0000020E75EB030E22BFB61A754640EADC00F3
:100A100055EA060E18D04FEA051545EA16754FEA55
:100A200006164FEAC30343EA52734FEAC2025FEA73
:100A30001C1CC0D111F4801F0BD141EA00014FF002
:100A400000004FF0004CB6E711F4801F04BF0143D3
:100A50000020B4F1FD0C88BFBCF5E06F3FF6AFAEEF
:100A6000B5EB030C04BFB6EB020C5FEA500C50F17F
:100A7000000041EB045170BD0EF0004E4EEA113102
:100A800014EB5C04C2BFD4EB0C0541EA045170BD09
:100A900041F480114FF0000E013C90E645EA060E4D
:100AA0008DE60CEA135594EA0C0F08BF95EA0C0F7B
:100AB0003FF43BAF94EA0C0F0AD150EA01347FF4C3
:100AC00034AF95EA0C0F7FF425AF104619462CE79A
:100AD00095EA0C0F06D152EA03353FF4FDAE1046FD
:100AE000194622E750EA410618BF52EA43067FF44E
:100AF000C5AE50EA41047FF40DAF52EA43057FF4DE
:100B0000EBAE12E74FF0FF3C06E000BF4FF0010CE8
:100B100002E000BF4FF0010C4DF804CD4FEA410C4C
:100B20007FEA6C5C4FEA430C18BF7FEA6C5C1BD019
:100B300001B050EA410C0CBF52EA430C91EA030F9A
:100B400002BF90EA020F0020704710F1000F91EAF7
:100B5000030F58BF994208BF90422CBFD8176FEAC5
:100B6000E37040F0010070474FEA410C7FEA6C5C93
:100B700002D150EA013C07D14FEA430C7FEA6C5C9A
:100B8000D6D152EA033CD3D05DF8040B704700BFC6
:100B90008446104662468C461946634600E000BF14
:100BA00001B5FFF7B7FF002848BF10F1000F01BDE6
:100BB0004DF808EDFFF7F4FF0CBF012000205DF8B1
:100BC00008FB00BF4DF808EDFFF7EAFF34BF012036
:100BD00000205DF808FB00BF4DF808EDFFF7E0FFCF
:100BE00094BF012000205DF808FB00BF4DF808ED20
:100BF000FFF7CEFF94BF012000205DF808FB00BF87
:100C00004DF808EDFFF7C4FF34BF012000205DF868
:100C100008FB00BF4FEA410C7FEA6C5C02D150EA4E
:100C2000013C0AD14FEA430C7FEA6C5C02D152EAE4
:100C3000033C02D14FF0000070474FF001007047B5
:100C40004FEA410212F5001215D211D56FF47873F4
:100C5000B3EB625212D94FEAC12343F0004343EA97
:100C6000505311F0004F23FA02F018BF4042704772
:100C70004FF00000704750EA013005D111F00040FC
:100C800008BF6FF0004070474FF00000704700BF92
:100C90004A0011D212F5001211D20DD56FF47873FB
:100CA000B3EB62520ED44FEAC12343F0004343EA50
:100CB000505323FA02F070474FF00000704750EA9B
:100CC000013002D14FF0FF3070474FF00000704705
:100CD00053B94AB9002908BF00281CBF4FF0FF31A3
:100CE0004FF0FF3000F0A0B9ADF1080C6DE904CE73
:100CF00000F03CF8DDF804E0DDE9022304B07047C1
:100D000038B50022002304460D46FFF75BFF28B9E3
:100D100020462946BDE8384000F00AB8204605F1D3
:100D2000004100F005F8404261EB410138BD00BFD1
:100D3000D0B50C4B002206460F46FFF7D1FCFFF75B
:100D4000A7FF0446FFF7A6FB074B0022FFF7C8FCEE
:100D500002460B4630463946FFF75EFAFFF798FF2A
:100D60002146D0BD0000F03D0000F0412DE9F047E4
:100D7000089D0C46002B4ED194468C458646B2FA0F
:100D800082F262D94AB1C2F12003914020FA03F302
:100D90000CFA02FC194300FA02FE4FEA1C471FFA44
:100DA0008CF6B1FBF7F44FEA1E4307FB141143EA3C
:100DB000014304FB06F199420AD91CEB030304F139
:100DC000FF3080F01281994240F20F81023C63446F
:100DD000591A1FFA8EF3B1FBF7F007FB101143EA23
:100DE000014300FB06F69E420AD91CEB030300F107
:100DF000FF3180F0FC809E4240F2F980634402386B
:100E00009B1B40EA044000211DB1D3400022C5E9EC
:100E10000032BDE8F0878B4205D90DB1C5E900016C
:100E200000210846F5E7B3FA83F1002946D1A34231
:100E300002D39042C0F0F080861A64EB03030120D5
:100E4000002DE6D0C5E90063E3E7002A40F090807A
:100E5000A1EB0C044FEA1C481FFA8CF70121B4FBEC
:100E6000F8F64FEA1E4308FB164443EA044307FB27
:100E700006F0984208D91CEB030306F1FF3402D2B6
:100E8000984200F2CD8026461C1A1FFA8EF3B4FB5E
:100E9000F8F008FB104443EA044300FB07F79F42C5
:100EA00008D91CEB030300F1FF3402D29F4200F289
:100EB000B0802046DB1B40EA0640A5E7C1F12006D2
:100EC0008B4022FA06F71F4320FA06FC04FA01F3CE
:100ED00043EA0C03F44000FA01F8380C4FEA1349D6
:100EE000B4FBF0FE1FFA87FC00FB1E4449EA0444F1
:100EF0000EFB0CF9A14502FA01F20AD93C190EF1D8
:100F0000FF3A80F08480A14540F28180AEF1020E6C
:100F10003C44A4EB09041FFA83F9B4FBF0F300FB93
:100F2000134449EA044403FB0CFCA44507D93C19CB
:100F300003F1FF3067D2A44565D9023B3C4443EA44
:100F40000E40A0FB0293A4EB0C049C42CE469C46B0
:100F500051D34ED055B1B8EB0E0364EB0C0404FA38
:100F600006F6CB401E43CC40C5E90064002150E7A3
:100F7000C2F1200320FA03F10CFA02FC24FA03F375
:100F800094400C434FEA1C4800FA02FE1FFA8CF70B
:100F9000B3FBF8F008FB1031230C43EA014300FBDC
:100FA00007F1994208D91CEB030300F1FF362CD25C
:100FB00099422AD9023863445B1AA4B2B3FBF8F110
:100FC00008FB113344EA034401FB07F3A34208D9A9
:100FD0001CEB040401F1FF3613D2A34211D90239EC
:100FE0006444E41A41EA004139E70446F0E6084661
:100FF00006E7C845AED2B9EB020E63EB070C013829
:10100000A8E73146EDE7034699E73046D4E7D646F0
:101010007FE7634402384DE70646234608460FE75C
:10102000023E634430E700BF704700BF002310B5A5
:101030000446C0E90033C0E904338360818143661C
:10104000C2818361194608225C3000F0F4F80D4B30
:1010500023620D4B63620D4BA3620D4BE3620D4B9C
:10106000E4619C4206D003F16802944202D0D0337E
:101070009C4205D104F15800BDE8104000F04EB983
:1010800010BD00BFB1110008D31100080B120008F9
:101090002F120008DC060020024A0349034800F032
:1010A00069B800BF00000020FD19000810000020F2
:1010B00041680C4B994210B5044601D000F09EFCEB
:1010C000A168094B994202D0204600F097FCE168E4
:1010D000064B994204D02046BDE8104000F08EBC7B
:1010E00010BD00BFDC06002044070020AC07002034
:1010F00010B50B4B0B4C0C4A1A6020460022042101
:10110000FFF794FF04F1680001220921FFF78EFF29
:1011100004F1D0000222BDE810401221FFF786BF83
:1011200014080020DC06002099100008014800F097
:10113000F7B800BF1E080020014800F0F2B800BF59
:101140001E08002010B50446FFF7F0FF636B1BB1CB
:10115000BDE81040FFF7F0BF044B6363044B1B680E
:10116000002BF5D1FFF7C4FFF2E700BFB110000874
:10117000140800202DE9F843074688461446002647
:10118000D4E90195B9F1010905D52468002CF7D1FE
:101190003046BDE8F883AB89012B07D9B5F90E308D
:1011A000013303D029463846C04706436835E9E78E
:1011B00010B50C46B1F90E1000F068F80028ABBF6E
:1011C000236DA3891B1823F48053ACBF2365A3812F
:1011D00010BD2DE9F0411F468B89DB0505460C4605
:1011E000164605D5B1F90E100223002200F03CF896
:1011F000A389B4F90E1023F48053A38132463B46F1
:101200002846BDE8F04100F053B810B50C46B1F9DE
:101210000E1000F029F8431CA38915BF206523F4A4
:10122000805343F48053A38118BFA38110BDB1F94B
:101230000E1000F009B802440346934200D17047F3
:1012400003F8011BF9E7000038B5064D00230446FA
:1012500008462B6001F0CAF8431C02D12B6803B189
:10126000236038BD1808002038B5074D04460846ED
:10127000114600222A601A4601F0C2F8431C02D12E
:101280002B6803B1236038BD1808002038B5074D1E
:1012900004460846114600222A601A4601F088F8E2
:1012A000431C02D12B6803B1236038BD180800200D
:1012B00038B5074D04460846114600222A601A46F2
:1012C00001F086F8431C02D12B6803B1236038BDBE
:1012D0001808002070B50D4D0D4C641BA41000269D
:1012E000A64209D10B4D0C4C06F0FAFF641BA4106A
:1012F0000026A64205D170BD55F8043B984701363B
:10130000EEE755F8043B98470136F2E7308D0008C8
:10131000308D0008308D0008388D00087047704708
:1013200070477047024B13B1024800F005B8704790
:1013300000000000251C0008002301461A4618463C
:1013400000F090BC2DE9F84306460820894600F0DD
:101350007DFC244F8046304600F044FBBB685D684E
:1013600025F00305A5F11104A4EB09044444B4FBE2
:10137000F8F4013C08FB04F4A04505DD304600F01C
:1013800037FB0020BDE8F8830021304600F03AFC2E
:10139000BB682B449842F1D16142304600F032FCE8
:1013A000013010D10021304600F02CFCBA68831ABD
:1013B0000F2BE3DD0C490968401A0C4943F0010387
:1013C00008605360DAE7BB68084A2D1B45F0010549
:1013D0005D60136830461B1B136000F009FB0120A1
:1013E000D0E700BF3C010020340100202408002089
:1013F000F8B504460F46002900F0B18000F0F2FA7B
:1014000057F8042C564D22F00100A7F1080303EB16
:10141000000CA968DCF80460614526F0030602F0C0
:1014200001021BD106443AB957F8082C9B1A1644FE
:10143000D3E90212CA60916046F001025A60AB60C3
:10144000484B1B68B34204D8474B20461968FFF746
:1014500079FF2046BDE8F84000F0CABACCF8046035
:10146000002A38D157F8081C5B1A0844996805F11E
:101470000807B94231D0DF68CF60B9600CEB0601D4
:101480004968C9070BD4DCF8081030443ABB374E22
:10149000B14224D1C5E90433C3E90211012240F06D
:1014A000010159601850002AD3D1B0F5007F1BD23A
:1014B000C208012140098140686801320143696026
:1014C00055F8320005EBC2010839C3E9020145F8BD
:1014D0003230C360BDE70022D0E70122CEE7DCF85E
:1014E0000C60CE60B160DAE7B0F5206F4FEA5022B1
:1014F00014D282093832511C05EBC20655F831105E
:101500008E4225D10120921000FA02F2686802434F
:101510006A60C3E90216B360CB609AE7142A01D867
:101520005B32E8E7542A02D8020B6E32E3E7B2F5E9
:10153000AA7F02D8C20B7732DDE740F254518A42CB
:101540009ABF820C7C327E22D5E789688E4204D015
:101550004A6822F003028242F7D8CE68D9E7F8BD84
:101560003C010020380100205408002044010020E4
:1015700001F10B03162B2DE9F74F054606D933F081
:10158000070704D50C232B600024A3E11027B942E0
:10159000F8D8284600F026FAB7F5FC7FAF4E37D2D0
:1015A00007F108023244A2F1080154688C424FEA64
:1015B000D70302D1D468A24210D06368D4E90212E2
:1015C00023F00303CA60234491605A6842F0010289
:1015D0005A60284600F00CFA08347BE10233346983
:1015E0009F498C4277D0626822F0030CACEB070075
:1015F0000F2848DDE21940F0010347F0010767605A
:10160000C6E90422C2E90211536044F80C00E0E785
:101610007B0A2AD0042B12D8BB0938335A1C06EB9C
:10162000C202A2F1080C5468644506D0626822F038
:101630000302D01B0F281CDD013B0133CFE7142B25
:1016400001D85B33EAE7542B02D83B0B6E33E5E756
:10165000B3F5AA7F02D8FB0B7733DFE740F2545291
:10166000934204D8BB0C7C33D8E73F23D6E77E23D4
:10167000D4E70028E16804DBA368D9608B60A31875
:10168000A3E70C46D0E70028C6E9041107DBA44411
:10169000DCF8043043F00103CCF8043099E7BCF5E2
:1016A000007F706880F095804FEADC024FEA5C1E94
:1016B0004FF0010C01320CFA0EFC4CEA0000706095
:1016C00056F832C006EBC2000838C4E902C046F83A
:1016D0003240CCF80C409810012282407068904251
:1016E00026D3104206D123F003035200104203F127
:1016F0000403FAD006EBC308C1469E46D9F80C4055
:101700004C4540F0B9800EF1010E1EF0030F09F1B7
:101710000809F3D1980740F0E380736823EA0203D5
:10172000736070685200904202D3002A40F0E58056
:10173000D6F808A0DAF8043023F00309B94504D339
:10174000A9EB07020F2A00F34181464B19681031BB
:1017500039440820019100F079FA434A019913684D
:1017600001331FBF01F1FF31091843421940804680
:101770002846019100F046FA421C0AEB090B044688
:1017800000F0F78083450199374A02D9B24540F00D
:10179000F080364B1868A34500EB010EC3F800E05B
:1017A00008F1FF3C40F0AB801BEA0C0F40F0A78033
:1017B000B268494441F0010151602D4A1B6811682B
:1017C0008B4288BF13602B4A11688B4288BF13601D
:1017D000CFE0BCF5206F4FEA5C2218D24FEA9C1292
:1017E000383202F1010E06EBC20856F83EE0F04531
:1017F0002BD192104FF0010C0CFA02F202437260EE
:10180000C4E902E8C8F80840CEF80C4063E7142A9F
:1018100001D85B32E5E7542A03D84FEA1C326E3216
:10182000DFE7B2F5AA7F03D84FEADC327732D8E798
:1018300040F2545E72459ABF4FEA9C427C327E224F
:10184000CFE7DEF808E0F04505D0DEF8042022F00E
:1018500003026245F5D8DEF80C80D1E73C01002098
:1018600044010020540800203401002024080020F6
:10187000500800204C0800206068D4F80CC020F00C
:101880000300A0EB070ABAF10F0F12DDA368E219FB
:1018900047F001076760C3F80CC0CCF808304AF085
:1018A0000103C6E90422C2E90211536044F800A012
:1018B0008FE6BAF1000F11DB2044436843F00103C7
:1018C000436054F8083F2846C3F80CC0CCF80830F1
:1018D00000F08EF8204603B0BDE8F08F64460FE7B5
:1018E00058F80809404503F1FF333FF413AF18E7F8
:1018F000043352001042FBD0FCE67346FAE710684E
:1019000001301BBFA4EB0B0B0BEB0E0214601A6033
:1019100014F0070B1ABFCBF10800241858466218C0
:1019200002EA0C018044A8EB010808EA0C084146D1
:101930002846019200F066F9431C019A284B07D112
:10194000BBF1000F23D0ABF1080010444FF00008AA
:101950001A68B460001B4044424440F00100B245A4
:101960001A6060603FF429AFB9F10F0F12D801235C
:101970006360B3685B6823F00303BB42A3EB070219
:1019800001D30F2A22DC284600F032F8FCE510468D
:10199000D846DDE7DAF80420A9F10C0929F0070997
:1019A00002F0010242EA0902CAF8042005210AEB0A
:1019B0000902B9F10F0FC2E901117FF6FEAE0AF17B
:1019C00008012846FFF714FD054BF6E6B46847F01A
:1019D0000103274442F001026360B7607A60F8E5D2
:1019E000240800200148FFF79BBC00BF1C08002012
:1019F0000148FFF796BC00BF1C08002070B50546E3
:101A00000C46B1B118B1436B0BB9FFF79BFB636E8A
:101A1000DE0705D4A389980502D4A06DFFF780FCEA
:101A2000B4F90C3043B9636ED90702D4A06DFFF747
:101A300078FC0026304670BD2146284600F034F878
:101A4000E36A064633B1E169284698470028B8BFE3
:101A50004FF0FF36A3891A0603D521692846FFF700
:101A6000C7FC216B41B104F14003994202D02846E2
:101A7000FFF7BEFC00232363616C21B12846FFF70A
:101A8000B7FC00236364FFF751FB0023A381636E5F
:101A9000DB0702D4A06DFFF744FCA06DFFF73FFC0D
:101AA000FFF74AFBC6E700002DE9F0410546B1F912
:101AB0000C0006070C4657D440F400638B814B683A
:101AC000002B02DCCB6B002B4CDDA66A002E49D02C
:101AD000002310F480522F68E1692B6034D0226D0E
:101AE000A389590705D56368D21A236B0BB1E36B41
:101AF000D21A0023A66AE1692846B047431C06D1E2
:101B00002A681D2A48D82B4B1341DE0744D4B4F968
:101B10000C3023F40062A28100226260D9042269A1
:101B2000226004D5421C01D12B6803B92065216BCA
:101B30002F60B9B104F14003994202D02846FFF763
:101B400057FC002323630DE001232846B0470246DB
:101B5000501CC5D12B68002BC2D01D2B01D0162BD9
:101B60001AD12F6000201EE00F69002FFAD08307E2
:101B70000E6808BF4B690F6018BF0023A6EB07086B
:101B80008B60B8F1000FEDDDE169666A43463A46C5
:101B90002846B047002808DCB4F90C3043F0400375
:101BA000A3814FF0FF30BDE8F0810744A8EB0008A7
:101BB000E7E700BFFEFFBFDF38B50C46054618B1AA
:101BC000436B0BB9FFF7BEFAB4F90C00B8B1636E02
:101BD000DB0704D4810502D4A06DFFF7A1FB2846E2
:101BE0002146FFF761FF636EDA07054605D4A38936
:101BF0009B0502D4A06DFFF794FB284638BD05462F
:101C0000FBE7000038B5064D0023044608462B606C
:101C100000F0F8FB431C02D12B6803B1236038BDF0
:101C20001808002038B5074D074C641BA4101CB9D8
:101C3000BDE8384006F05ABB013C55F824309847BF
:101C4000F5E700BF388D00083C8D0008082808B56E
:101C500006D000F047F8162303604FF0FF3008BDB0
:101C60008020FCE72DE9F047DFF874A00646DAF89B
:101C7000000098460F469146FFF752FB164B1C6832
:101C80000CB9164C1C606568DAF800001F2D05DDE4
:101C9000FFF747FB4FF0FF30BDE8F0879EB104EB44
:101CA00085010122C1F88890D4F88831AA401343F5
:101CB000C4F88831022EC1F8088102BFD4F88C31F3
:101CC0001343C4F88C316B1C0235636044F82570F3
:101CD000FFF727FB0020DFE720080020580800203E
:101CE00030010020014B1868704700BF0C00002035
:101CF000034AD2F8883043F47003C2F88830704742
:101D000000ED00E01A4A136843F480331360184B67
:101D10001B6813F4003FFAD0164A136843F005031A
:101D20001360134B144A5A601A6842F080721A60AA
:101D30000F4B1B6813F0007FFAD00D4B9A6822F40A
:101D40007C4222F0F0029A609A6842F414429A604F
:101D50009A6822F003029A609A6842F002029A603E
:101D6000034B9B6803F00C03082BF9D1704700BFAD
:101D700000380240003C0240031440070F4B1A6B2E
:101D800042F001021A631B6B0D4B1A6822F4407279
:101D90001A601A6822F0F0021A601A6842F0A00273
:101DA0001A601A6A22F47F421A621A6A42F4EE42F8
:101DB0001A62DA6822F47C72DA60704700380240F6
:101DC000000002400A4B1A6C42F400321A641B6C89
:101DD000084BDA6822F40052DA6040F25B129A6033
:101DE0000C22DA60DA6842F40052DA60704700BF11
:101DF000003802400044004007E0064B1B6813F027
:101E0000800FFAD00130034B5A600278002AF4D1D7
:101E1000704700BF00440040084B1A6C42F000526B
:101E20001A641B6C064B1A6822F001021A601A68C9
:101E300042F001021A6000229A60704700380240A6
:101E40000074004008B5134B1A6C42F010021A647B
:101E50001B6C114B1A6822F001021A6080B2986262
:101E600089B2D962DA6842F00102DA600B4A1021C5
:101E700082F836134FF4800151601A6842F0010273
:101E80001A601B6813F0010F00D008BD0448FFF76B
:101E9000B3FFFAE7003802400010004000E100E024
:101EA000F8820008DFED327AB4EEE70AF1EE10FABC
:101EB0005DD908B5DFED2F7A20EE270ADFED2E7A07
:101EC000C7EE806A9FED2D7AC6EE877AB6EE007A6D
:101ED00077EE877AFCEEE77A17EE903A013B4FF601
:101EE000FE7293423AD8264A40F2CF711160254AD9
:101EF0001360254B1A6822F001021A60204A1288EA
:101F00009A62204A1288DA6201225A611A6842F003
:101F100001021A6008BD42F210739A4221D80132C0
:101F2000B2F5803F1DD2E0B907EE902AB8EE677A8D
:101F3000C6EE877AB6EE007A77EE877AFCEEE77A1D
:101F400017EE903A013B4FF6FE718B42E3D8511EDB
:101F50000B4801600B490B600120DCE701220020E7
:101F6000DEE70028C5D10948FFF746FFD2E77047F2
:101F7000CDCCCC3D0000C8428096184C0000FA44FD
:101F8000500500204C050020001000401883000878
:101F900010B5002413E007EE904AF8EEE77A9FEDC3
:101FA000097A67EE877A9FED080A87EE800A05F0C6
:101FB0005DFC064B03EB840383ED000A0134632CC4
:101FC000E9DD10BDDB0FC9400000C842340A002023
:101FD000534B1B6913F0010F4CD0514A136923F086
:101FE000010313614F4A1368013313604E4B1B7892
:101FF000002B40D14D4B1A684D4B03EB8203D3EDC0
:10200000007A4C4B93ED007A27EE277ADFED4A7A7F
:1020100037EE277AB5EEC07AF1EE10FA7DD4DFED17
:10202000477AB4EEE77AF1EE10FA01DDB0EE677AA6
:10203000DFED426AC7EE267A9FED417A67EE877A36
:10204000B6EE007A77EE877AFCEEE77A17EE903AF2
:10205000B3F5805F01D340F6FF739BB2394A9360BA
:10206000324B1A6801321A601B68632B02D92F4B5E
:1020700000221A6070472C4B1B78DBB2012B0CD06E
:10208000294B1B78DBB2022B0ED0274B1B78DBB21F
:10209000032B2FD0DFED2C7AB3E7244B1B68312BB9
:1020A00038D8F7EE007AACE7204B1B68312B0FD8FD
:1020B0001E4B93ED007AB8EE477ADFED246AC7EE47
:1020C000267A77EEA77AB7EE007A77EEC77A98E7A6
:1020D000164B1B68323B07EE903AF8EE677ADFED5D
:1020E0001B6A87EEA67A37EE077AF7EE007A77EE6C
:1020F000C77A86E70D4B93ED007AB8EE477ADFEDAD
:10210000146AC7EE267A77EEA77AB7EE007A77EEF2
:10211000C77A76E7FFEE007A73E79FED0B7A7EE7EA
:1021200000100040E8090020C40B0020300A002005
:10213000340A0020440500203333D33F3333534067
:1021400000F07F450074004000000000000048429D
:102150000000C64210B590B00378462B08D0412B42
:1021600034D0572B53D03F48FFF746FE10B010BD78
:10217000013000F094F951EC100BFEF705FA07EE70
:10218000900A9FED397AF4EEC77AF1EE10FA06DB89
:102190009FED367AF4EEC77AF1EE10FA03D934489F
:1021A000FFF72AFEE2E7334C206094ED000AFFF7C8
:1021B00079FE2068FEF790F902460B462E496846E4
:1021C00001F006F86846FFF717FECFE7013000F090
:1021D00066F951EC100BFEF7D7F907EE900AF5EE11
:1021E000C07AF1EE10FA0FD4244BC3ED007A1868D0
:1021F000FEF772F902460B462149684600F0E8FFF7
:102200006846FFF7F9FDB1E7DFED1E7AECE7013034
:1022100000F048F948B101280ED0022813D0032855
:1022200018D01948FFF7E8FDA0E7184B00221A70F4
:102230001748FFF7E1FD99E7144B01221A70154882
:10224000FFF7DAFD92E7114B02221A701248FFF7EE
:10225000D3FD8BE70D4B03221A701048FFF7CCFD1E
:1022600084E700BF50840008CDCCCC3D00007A4408
:102270005C830008480500204883000844050020CE
:102280007C83000800000000FC830008C40B0020D1
:1022900090830008A8830008C4830008E083000836
:1022A00010B5C4B0FFF724FDFFF72CFDFFF766FD66
:1022B000FFF788FDFFF7B0FDFFF76AFE284B1968AE
:1022C000284B1868FFF7BEFD274B1A68A3F5C843D3
:1022D0001B68264924A800F07BFF24A8FFF78CFD8B
:1022E0002348FFF789FD234B1C68234B1868FEF732
:1022F000F3F8CDE902012046FEF7EEF8CDE9000142
:102300001E4A1F4904A800F063FF04A8FFF774FDEC
:1023100008E01C4B1B681C4A0021D154C3B9194B5F
:1023200000221A60194B1B6813F0200FFAD0174BCC
:102330005B68DBB20D2BF5D00A2BEAD0114A12688C
:102340003E2A09D8501C0F4908600F498B54E9E711
:102350001046FFF7FFFEE2E70A4B00221A60E1E7B2
:102360004C050020500500200074004080840008C7
:10237000AC84000848050020440500200068890955
:10238000E4840008EC090020F0090020004400402B
:102390000120704708B5FFF7A5FC162303604FF036
:1023A000FF3008BD08B54FF0FF31FFF7F3FFFEE740
:1023B00070B50C461646002506E0AFF300802146B6
:1023C00001F8010B01350C46B542F6DB304670BD15
:1023D00070B50C461646002504E014F8010BAFF367
:1023E00000800135B542F8DB304670BD4FF0FF305C
:1023F00070474FF400534B60002070470120704736
:102400000020704710B503460C4A0D490D4800687E
:1024100040B10C4800680344521A934206D8094A56
:10242000136010BD0748084C0460F2E7FFF75AFC40
:102430000C2303604FF0FF30F3E700BF00000220E1
:1024400000040000C80B0020D00B00200D4885467A
:10245000AFF300800C480D490D4A002302E0D45828
:10246000C4500433C4188C42F9D30A4A0A4C0023DE
:1024700001E013600432A242FBD3FEF72BFFFFF70B
:102480000FFFFEE70000022000000020C006002031
:102490003C8D0008C0060020CC0B0020FEE7002188
:1024A00000F006BE0A22002100F088BE70B5044686
:1024B0000D4645EC104B164601F04CFD51EC100B4F
:1024C0007EB1C5F30A53C3F16B03002B09DD1B0575
:1024D00003F17F55002405F5401522462B46FEF7F3
:1024E000FFF841EC100B70BD2DE9F04F9FB00C468A
:1024F000179200221A9205904FF0000A4FF0000B3D
:102500000A46199211782B294AD038D80D2932D889
:10251000082932D800293BD000220B92199D2A7835
:10252000302A40F0B3806A7802F0DF02582A6ED178
:1025300002930B9B01931AAB00938E4A05981BAB39
:1025400019A900F0FDFE10F00F06044605D0062E76
:1025500028D10135002319950B93179B002B40F0D0
:102560008E850B9BCBB152460BF1004343EC102BF5
:102570001FB0BDE8F08F2029CED10132C1E72D294F
:10258000CAD101210B91511C19915278002AC5D151
:10259000179B1994002B40F0708552465B46E5E787
:1025A0000021EFE71A9A3AB135211CA801F0CCFDC1
:1025B0001A99059801F0CCF9013E1B9A042E06D811
:1025C000DFE806F014031D201400DDE91CABE10573
:1025D00048BF4BF0004B2BF000431B0D1B05002B9D
:1025E000BBD1FFF77FFB22230360B6E7DDE91CA325
:1025F00002F2334223F4801343EA025BE7E7DFF899
:102600007CB1E4E76FF0004B4FF0FF3ADFE7199B36
:102610005A1C19925B78302BF9D0002B9DD00123E6
:102620000993199B0C93002308930A931F460A22CF
:1026300019980578A5F13003D9B2092928D94E494E
:10264000012200F0E5FD002832D000202A46814614
:102650003D460346652A01D0452A14D11DB9099A81
:10266000024395D00025199C621C199262782B2A8E
:1026700077D02D2A7BD04FF0000CA2F13001092930
:1026800040F2828019944FF00008A2E00023C7E7CF
:10269000082FD5BF0A99089902FB013302FB0133C9
:1026A00000F10100D4BF0A93089301371990BFE7E6
:1026B000199B5A1C19925A787FB381463D46A2F164
:1026C0003003092B12D90123C4E7199B5A1C199214
:1026D0005A780130302AF8D0A2F13103082B00F2E9
:1026E000D384199B0C93814600200546303A00F1B3
:1026F00001032AD0994400EB050C2B460A216345BF
:102700000DD1691C01442844082816DC0A980A23C4
:1027100003FB00230A93002318E03846DAE7082B6E
:1027200003F1010303DC0A9E4E430A96E7E7102BF0
:10273000DEBF089E4E430896E1E70F28EBDC0898C1
:102740000A2303FB00230893E5E72946199A501C46
:102750001990527818460D46B1E74FF00009012351
:102760007DE74FF0000CA21C1992A27885E74FF08C
:10277000010CF8E7348500081D8500080000F07F93
:10278000199A511C19915278302AF9D0A2F13101CD
:1027900008293FF678AF303A0E92199A0F924FF00F
:1027A0000A08199A561C19965278A2F1300EBEF1F9
:1027B000090F39D90F99761A082E44F61F6803DCE1
:1027C0000E998845A8BF8846BCF1000F01D0C8F11A
:1027D0000008002D4ED1099908437FF4BEAE002BAE
:1027E0007FF4D6AE692A28D025DC492A25D04E2A86
:1027F0007FF4CEAE9B4919A800F0C4FF00283FF437
:10280000C7AE199B1B78282B2ED197491CAA19A853
:1028100000F0CCFF052827D11D9BDDF870A043F008
:10282000FF4B4BF4E00B98E60E9908FB0121A1F158
:1028300030020E92B5E76E2ADAE78C4919A800F04B
:10284000A1FF00283FF4A4AE199B8949013B19A8B8
:10285000199300F097FF10B9199B01331993DFF812
:1028600020B24FF0000A78E6824800F0F9FC5BECF9
:1028700010AB72E6A8EB09030A980993002F08BF72
:102880002F46102D2C46A8BF1024FDF703FE092D5E
:1028900082468B4613DC099B002B3FF45EAE099BFE
:1028A00078DD162B5FDC744901EBC301D1E900012F
:1028B00052465B46FDF714FF82468B464DE66E4B53
:1028C00003EBC40353E91223FDF70AFF824608987D
:1028D0008B46FDF7DFFD02460B4650465946FDF795
:1028E0009DFC0F2D82468B46D5DD099B2C1B1C447D
:1028F000002C40F3968014F00F030AD05E4901EBE0
:10290000C30152465B46D1E90001FDF7E9FE82466C
:102910008B4634F00F0473D0B4F59A7F48DD002461
:10292000A0460A94A146059ADFF854B12223136009
:102930004FF0000A0A9B002B3FF40FAE1A9905983E
:1029400001F006F80598494601F002F8059841465D
:1029500000F0FEFF0A99059800F0FAFF059821465D
:1029600000F0F6FFF9E5099AC5F125039342BCDBB7
:10297000414CC5F10F0504EBC50152465B46D1E958
:102980000001FDF7ADFE099B5D1B04EBC504D4E916
:1029900000238FE71633A8DB374BA9EB080803EBBE
:1029A000C808D8E9002350465946FDF7C3FF83E71E
:1029B000324B089300232411504659461E46012CE1
:1029C00021DC0BB182468B462C49ABF1547B01EBE9
:1029D000C60152465B46D1E90001FDF781FE284B56
:1029E0000A460B4027498B42824698D8A1F58011B0
:1029F0008B4286BFDFF890B04FF0FF3A02F1547B74
:102A0000002308937AE0E20705D5089BD3E9002369
:102A1000FDF766FE0123089A083201366410089219
:102A2000CDE7EDD0644214F00F020AD0124B03EB55
:102A3000C20350465946D3E90023FDF77BFF824687
:102A40008B462411DCD01F2C20DD0024A0460A94E4
:102A5000A146059A22234FF0000A4FF0000B1360A5
:102A600068E700BF4D8800082085000845880008F9
:102A7000D3880008CF8800087887000850870008AE
:102A80000000F07F0000A07CFFFFEF7F14F0100338
:102A900018BF6A23A94E0893504659460023E207FF
:102AA00004D5D6E90023FDF71BFE0123641006F1CF
:102AB0000806F4D10BB182468B46089BB3B1CBF329
:102AC0000A52C2F16B03002B59460FDD1F2B55DD57
:102AD000342BDEBF4FF0FF33C2F14B0293404FF077
:102AE000000ACCBF4FF05C7B03EA010B00220023FD
:102AF00050465946FEF75CF80028A6D10A9B009381
:102B00000C9905982B463A4600F072FF0A9000286F
:102B10003FF405AF099A002AA9EB0803A8BF0023D8
:102B20001293002422EAE2731693A0460A9B0598AA
:102B3000596800F0E8FE814600283FF4F4AE0A9B95
:102B40001A69023203F10C0192000C3000F078FB9C
:102B50004BEC10AB05981CAA1BA9CDE90CAB01F0FE
:102B600069FA1A9000283FF4DEAE0598012100F0C2
:102B7000D5FF804648B94FF00008D4E64FF0FF3249
:102B800002FA03F303EA0A0AB0E71B9D1C9A002D20
:102B9000ABBF129B169B169E129FACBFEF185E1B1D
:102BA000089BED1A1544664B013D9D42C2F1360269
:102BB00050DA5B1B1F2BA2EB03024FF001013DDC3F
:102BC00001FA03F3139300231093BD18089BAF423F
:102BD00016441E443B46A8BF2B46B342A8BF33460B
:102BE000002BC2BFED1AF61AFF1A129B002B16DD3E
:102BF000414605981A4601F051F880460028BAD09F
:102C000001461A9A059800F09FFF0E9000283FF4A5
:102C10008AAE1A99059800F09BFE0E9B1A93002D20
:102C20001DDC099B002B23DD4946169A059801F00F
:102C300035F88146E0B94FF0000974E6C5F17F45EB
:102C400005F57F0505F57B45E23501FA05F310939F
:102C50001391BAE70023109301231393B5E71A9950
:102C600005982A4601F05AF81A900028D9D15AE658
:102C7000002E07DD49460598324601F04FF881469F
:102C80000028D8D0002F08DD414605983A4601F0CB
:102C900045F8804600283FF446AE1A9905984A4602
:102CA00001F0C4F8044600283FF43DAEC3680F931A
:102CB0000023C360414601F09DF8002846DA0F9BCF
:102CC00053EA0A036CD1CBF31303002B68D12BF02A
:102CD00000431B0D1B05B3F1D66F61D9636913B9AE
:102CE0002369012B5CDD21460122059801F016F8CD
:102CF0004146044601F07EF8002851DD2BF00043E8
:102D0000089A1B0D1B05002A6BD0B3F1D66F68D84B
:102D1000B3F15C7F7FF69DAE0A4B504659460022C8
:102D2000FDF7DEFC084B0B4082468B46002B7FF400
:102D300005AE059A2223136000E600BF488500080F
:102D400002FCFFFF000050390000F07FCDF838B0E2
:102D500065D10F9ACBF313035AB39F4A93422BD1F9
:102D6000089B514603B39D4B5A461340B3F1D46FB1
:102D70004FF0FF321BD81B0DC3F16B0302FA03F3B4
:102D8000994219D1964B0E9A9A4202D101313FF4E1
:102D9000CAAD924B0E9A1A4002F5801B4FF0000A02
:102DA000089B002BB8D1C9E54FF0FF33E8E7134685
:102DB000E6E753EA0A03A1D0109BDBB10E9A134257
:102DC000EED00F9B089A50465946BBB1FFF76EFBF9
:102DD000DDE90C0153EC102BFDF720FA82468B46FF
:102DE000DEE7A3F580136FEA135B6FEA0B5B4FF02E
:102DF000FF3AD5E7139B13EA0A0FE1E7FFF756FB0B
:102E0000DDE90C0153EC102BFDF706FA002200233C
:102E100082468B46FDF7CCFE0028C1D019E641461C
:102E2000204601F05FF957EC106B00224FF0804311
:102E300030463946FDF7D0FE00286FD00F9B002B9F
:102E40007AD1BAF1000F58D10E9BC3F31303002BB4
:102E50005AD1644B002230463946FDF7B3FE0028B4
:102E600059D130463946604B0022FDF739FC064601
:102E70000F4607F1004306960793DDE90623574DF9
:102E8000CDE910230E9B1D40584B9D4240F0B2806F
:102E90000E9BA3F1547B4BEC10AB01F05BF8DDE92A
:102EA000062351EC100BFDF71BFC52465B46FDF769
:102EB000B5F90B4649494E4A19409142824642D9DA
:102EC0000D9A474B9A4203D10C9B01333FF42BAD33
:102ED000DFF80CB14FF0FF3A1A99059800F038FD71
:102EE0000598494600F034FD0598414600F030FD54
:102EF0000598214600F02CFD18E6BAF1010F03D128
:102F00000E9B002B3FF4A5AD9FED2B7B354F8DED38
:102F1000067B0026B1E7344F0026AAE7324B304645
:102F200039460022FDF7DCFB0F9B06460F46002BBF
:102F30009FD0CDE90667A0E79FED217B8DED067B55
:102F400057EC176B99E703F1547B089BCDF838B029
:102F5000002BC1D12BF000431B0D1B059D42BBD1A3
:102F600030463946FDF7CCFEFDF7E0FA02460B4647
:102F700030463946FDF750F90B460246CDE90C23A1
:102F8000CBF313060F9B46EA0A061E436FD00EA32F
:102F9000D3E90023FDF716FE00287FF4CFAC0CA385
:102FA000D3E90023DDE90C01FDF72AFE002893D0C8
:102FB000C4E400BFAFF30080000000000000F0BFD9
:102FC000000000000000F03F9535A094FFFFDF3FB8
:102FD00035E5AF350000E03FFFFF0F000000F07F58
:102FE000FFFFEF7F0000F03F0000E03F0000E07FC8
:102FF000FFFF9F7C089B23B3B5F1D46F21D828A392
:10300000D3E9002330463946FDF7E6FDA0B1394645
:103010003046FDF73DFE012838BF0120FDF73AFAA2
:103020000F9B06460F46FBB901F100431490159320
:10303000DDE91423CDE91023119B03F1D6635B1B5B
:1030400011939DED0C0BDDE910AB00F083FF5046B2
:1030500053EC102B5946FDF743FBDDE90C23FDF73C
:10306000DDF882468B4670E7CDE91467E0E70EA3F2
:10307000D3E90023FDF7A6FD98E700230B93179AE9
:10308000199B1360FFF76DBA652A3FF466AB452ABA
:103090003FF463AB0123FFF79EBB00BFAFF300809B
:1030A0000000C0FFFFFFDF419535A094FFFFCF3F39
:1030B0000A4601460248034B0068FFF715BA00BFF5
:1030C0000C00002054050020242B2DE9F0478646F3
:1030D000904601D8012B06D1FEF704FE16230360AB
:1030E0000020BDE8F08734480D462A4615F8014B0C
:1030F000065D16F00806F8D12D2C2DD12C7801266E
:10310000951C33F0100209D1302C2AD12A7802F014
:10311000DF02582A25D16C781023023506F1004CC5
:103120000CF1FF3C0022BCFBF3F9104603FB19CA6B
:10313000A4F13007092F1BD83C46A34227DD571CBA
:1031400007D0814520D301D1A2451DDB00FB034000
:10315000012215F8014BEBE72B2C04BF2C78951CB2
:10316000CFE7002BDAD1302C0CBF08230A23D5E798
:10317000A4F14107192F01D8373CDEE7A4F161071C
:10318000192F04D8573CD8E74FF0FF32E1E7531C22
:1031900008D12223CEF800306046B8F1000FA0D04D
:1031A000691E06E006B14042B8F1000F99D0002A2E
:1031B000F6D1C8F8001094E77185000813460A4656
:1031C000014602480068FFF77FBF00BF0C000020E7
:1031D0000EB400B59CB01DAB029006906FF000419C
:1031E000094807910491094953F8042B0591006897
:1031F000019302A900F0FCFF029B00221A701CB090
:103200005DF804EB03B070470C0000200802FFFFDC
:1032100010B56AB10139841810F8012B11F8013F7B
:103220009A4203D1A04201D0002AF5D1D01A10BD94
:103230001046FCE7014B93F8280170475405002025
:103240000A44914200F1FF3300D1704710B511F8E4
:10325000014B03F8014F9142F9D110BD000000006D
:103260009FED010B704700BF000000000000F87FD9
:103270000369B3EB611F2DE9F0434FEA611200F1DE
:10328000140445DD11F01F0104EB830604EB8205F5
:103290000CD100F110072946B14234D39B1A9B0090
:1032A000EA1E964238BF0023234415E054F82270EA
:1032B000C1F12008CF4005F1040EA1467645F44641
:1032C00015D89A1A9200043A0135AE4238BF00224E
:1032D000A318A75007B104331A1BA3424FEAA20256
:1032E00008BF0023026108BF4361BDE8F083DCF83A
:1032F00000C00CFA08FC4CEA070749F8047B5EF8AA
:10330000047BCF40DAE751F804CB47F804CFC3E79A
:103310002346E1E7A0F13003092B02D82038C0B2E0
:103320007047A0F16103052B01D84738F7E7A0F1FA
:103330004103052B01D82738F1E700207047000032
:103340002DE9F04F85B08A4602930B6801909046B4
:103350009C1CA14614F8010B3028FAD0A9EB0303FA
:10336000A3F1020BFFF7D6FF0546002868D1A0495C
:1033700001224846FFF74CFF0746002867D199F81D
:1033800001002646FFF7C6FF002862D023461878C2
:103390003028994603F10103F9D0FFF7BBFFB0FADB
:1033A00080F56D094FF0010B4A4616460132307820
:1033B000FFF7B0FF0028F8D18D4901223046FFF712
:1033C00027FF00283FD144B9741C2246164601321B
:1033D0003078FFF79FFF0028F8D1A41BA7003378AF
:1033E00003F0DF03502B3ED173782B2B33D02D2BE2
:1033F00034D0711C00240878FFF78CFF431EDBB229
:10340000182B30D8A0F1100211F8010FFFF782FF3E
:1034100000F1FF3C5FFA8CFCBCF1180F4FF00A037F
:103420001ED904B152421744CAF80010EDB1BBF1E5
:10343000000F0CBF06250025284605B0BDE8F08F1B
:1034400000252C46B0E7002CC7D12746C7E74E46DB
:103450002F460125C3E70024B11CCCE70124FBE77C
:1034600003FB0200CEE73146DEE7A6EB0903013B92
:103470002946072B0ADC019800F045FA044640B9BA
:103480005C4B0246E4215C4802F0DEF801315B103F
:10349000EFE700F1140A002355469B46B14537D3A8
:1034A00045F804BBA5EB0A05AD102561584600F0B0
:1034B000E9FA6D01D8F800602D1AB54254DDAD1B54
:1034C0002946204600F063FE814678B16B1E5911F3
:1034D00003F01F025AF821104FF0010909FA02F215
:1034E0000A4203D04B4536DC4FF0020929462046FC
:1034F000FFF7BEFE2F44D8F80830BB4242DA0198ED
:10350000214600F025FA0E9A00231360A32593E7C5
:1035100016F8012D2E2A12D0202B04D145F804BB19
:103520004FF0000B5B4630780393FFF7F3FE039BED
:1035300000F00F0098404BEA000B0433AEE7B145B2
:10354000EAD82B49039301223046FFF761FE039B23
:103550000028E1D1A2E7A91E204600F018FE0028AD
:10356000C2D04FF00309C1E709DA751B2146019863
:103570002A4600F0D3FB7F1B044600F1140A4FF0EB
:103580000009B8E7D8F80450BD426FDDED1BAE422C
:1035900034DCD8F80C30022B22D0032B24D0012BA2
:1035A00015D1AE4213D1012E0BD1029AD8F80430B6
:1035B000136001232361CAF800300E9B62251C6052
:1035C0003AE7711E204600F0E2FD0028EDD1019897
:1035D000214600F0BDF90E9A0023136050252BE719
:1035E0000F9B002BF3D1E0E70F9B002BDDD1EEE723
:1035F0001D850008798600088A8600086F1EB9F1CB
:10360000000F30D127B13946204600F0C0FD814679
:103610007A1101235AF8222007F01F07BB401342FA
:103620002946204618BF49F00209FFF721FED8F8C5
:103630000470761B0225B9F1000F47D0D8F80C3082
:10364000022B15D0032B17D0012B09D119F0020F33
:1036500006D0DAF8003049EA030919F0010F0ED15B
:1036600045F0100532E04FF00109D1E70125E2E70E
:103670000F9BC3F101030F930F9B002BF0D0D4F8E5
:1036800010B004F114034FEA8B0A03EB8B014FF0E7
:10369000000C184653F8042BB2F1FF3F1BD0013247
:1036A0000260022D04F114033CD1D8F80020013A45
:1036B000B24209D17111012253F8213006F01F06E0
:1036C00002FA06F61E423AD145F020050E9B1C6018
:1036D000029B1F60B0E6994243F804CCD9D8A36896
:1036E0009B4517DB61680198013100F00CF98146B8
:1036F00018B91A4B02468421C5E62269023204F148
:103700000C0192000C30FFF79BFD2146019800F060
:103710001FF94C4623695A1C04EB830322610122E2
:103720005A61BEE722695A450BDD01212046FFF7A9
:103730009FFDD8F808300137BB42FFF6E0AE012507
:10374000C2E716F01F06FAD05344C6F1200653F81C
:10375000040C00F097F9B042E7DBF0E77986000847
:10376000C2F10802920070B5C2F1200643680468F5
:1037700003FA06F52C43D340046040F8043F884226
:10378000F4D370BD30B50368013311F8014B14B99F
:103790000360012030BD13F8012BA2F14105192D62
:1037A00098BF2032A242F0D00020F3E72DE9F04F7D
:1037B0000B6801685E1102EB860613F01F0387B0E9
:1037C00018BF04360025371F82469046019346F8FD
:1037D000045CB9463C460295AB464A784B1C0393C1
:1037E00042B3104605910492FFF794FD002851D191
:1037F000049A0599202A18D8029B9B4513DD4C4555
:1038000006D2072D04DC2A4649462046FFF7A8FFCA
:10381000444552D90023A4F1040944F8043CCDF8EE
:1038200008B04C461D460399D7E7292A57D10231E3
:10383000CAF80010BBF1000F51D04C4506D2072D3D
:1038400004DC2A4649462046FFF78AFF444536D91C
:10385000A8F10402234653F8041B42F8041F9F42B8
:10386000F9D23B1B23F0030304330134033EB4427B
:1038700088BF04234344002243F8042B9F42FBD219
:103880003B681BB9474528D101233B60052007B0A1
:10389000BDE8F08F0135082D0BF1010B06DD444525
:1038A000C1D9002344F8043C0125043C226800F0FF
:1038B0000F0040EA02102060B5E70825B3E7019B3E
:1038C000002BDDD0C3F120034FF0FF32DA4056F871
:1038D000043C134046F8043CD2E7043FD0E7042000
:1038E000D5E782B001B901A942B14BB113780B60A1
:1038F0001278101E18BF012002B070471046FBE777
:103900006FF00100F8E7436C70B505460C467BB1DB
:103910006B6C53F82400A0B9012101FA04F6721D62
:103920009200284601F0AEFE48B1C0E901460BE026
:103930002122042101F0A6FE68640028E8D10020BD
:1039400070BD026843F824200023C0E90333F7E781
:1039500031B1436C4A6853F82200086043F82210E2
:10396000704700002DE9F0410D6907460C461E46E0
:1039700001F1140C0020DCF8003099B202FB016167
:103980001E0C0B0C02FB063389B2013001EB034124
:1039900085424CF8041B4FEA1346ECDC0EB3A368D7
:1039A000AB4219DC616838460131FFF7ACFF804655
:1039B00028B902460C4B0D48BA2101F045FE226998
:1039C000023204F10C0192000C30FFF739FC214661
:1039D0003846FFF7BDFF444604EB850301355E61C1
:1039E00025612046BDE8F08179860008EA86000856
:1039F0002DE9F8430C4615461F46092208330646B2
:103A000093FBF2F3002101229A4209DB3046FFF7D3
:103A10007AFF40B90246194B1948D32101F014FE30
:103A200052000131F0E7089B4361092D4FF001037B
:103A3000036116DD04F10909C8462C4418F8013B5E
:103A40000146303B0A223046FFF78CFFA045F5D1F6
:103A5000A5F108044C442D1B6319BB4204DBBDE8EF
:103A6000F8830A340925F6E714F8013B0146303B98
:103A70000A223046FFF776FFEEE700BF798600089E
:103A8000EA860008B0F5803F034636BF03040020F5
:103A90001020B3F1807F3CBF1B020830B3F1805F80
:103AA0003CBF1B010430B3F1804F3CBF9B00023090
:103AB000002B05DB13F0804F00F1010008BF202030
:103AC00070470368024613F007000BD0D90721D4D2
:103AD000980749BF5B089B08012013605CBF136017
:103AE0000220704799B209B91B0C1020D9B209B94C
:103AF00008301B0A190704BF1B090430990704BFCB
:103B00009B080230D90703D45B0800F1010003D001
:103B100013607047002070472020704710B50C4696
:103B20000121FFF7F0FE024628B9054B054840F297
:103B3000451101F089FD01234461036110BD00BFFF
:103B400079860008EA8600082DE9F04F14460A69D4
:103B500023699A42A8BF23460F46A4BF0C461F46BE
:103B6000D4F810A0D7F81090A36861680AEB090692
:103B7000B34285B0B8BF0131FFF7C5FE30B9024688
:103B8000444B45484FF4B17101F05EFD00F114055E
:103B900005EB86082B460022434521D307F114018B
:103BA00004F1140202EB8A0201EB89030293131B56
:103BB000153B23F00303043304F11507BA4238BF61
:103BC00004230193029B03918B420CD8002E03DD4A
:103BD00058F8043D002B5BD0066105B0BDE8F08FBE
:103BE00043F8042BD8E7B1F800A0BAF1000F24D0B5
:103BF00004F1140EA9464FF0000C5EF8047BD9F8CE
:103C000000301FFA87FB9BB20AFB0B334FEA174BBE
:103C1000D9F8007063444FEA174C0AFB0BC707EB57
:103C200013479BB243EA0743724549F8043B4FEA06
:103C3000174CE2D8019B45F803C0039BB3F80290F0
:103C40000431B9F1000F21D02B6804F1140CAE46F9
:103C50004FF0000ABCF800B0BEF8027009FB0B7709
:103C600057449BB243EA07434EF8043B5CF8043BDD
:103C70004FEA134ABEF8003009FB0A3303EB17433F
:103C800062454FEA134AE5D8019FEB51043599E7A5
:103C9000013E9BE779860008EA8600082DE9F84393
:103CA000154612F0030207460E4607D01A4C013A99
:103CB000002354F82220FFF755FE0646AD1027D00A
:103CC0003C6C44B940F271213846FFF727FF0023CE
:103CD0003864044603604FF00009EB070AD531460B
:103CE00022463846FFF730FF314680463846FFF718
:103CF0002FFE46466D100BD0206838B9224621466B
:103D00003846FFF721FF2060C0F800900446E4E742
:103D10003046BDE8F88300BF448700082DE9F0472E
:103D20000C464968236903EB6218A368074691466D
:103D30004FEA621A08F10106B3420BDB3846FFF77F
:103D4000E2FD054648B90246284B29484FF4EF7179
:103D500001F07AFC01315B00EEE7002300F1140171
:103D600000F110021846534533DB20692AEAEA7A4B
:103D700004F1140319F01F0901EB8A0103EB800C15
:103D80002BD0C9F1200E8A460022186800FA09F0EB
:103D900010434AF8040B53F8042B9C4522FA0EF208
:103DA000F3D8ACEB0403153B23F00303043304F115
:103DB0001500844538BF0423CA500AB108F1020631
:103DC000013E38462E612146FFF7C2FD2846BDE878
:103DD000F08742F8040F0133C5E7043953F8042B88
:103DE00041F8042F9C45F9D8EAE700BF798600081E
:103DF000EA8600080A6903460069801A30B50ED1C8
:103E00001433143103EB820401EB820154F8045D96
:103E100051F8042D954203D005D24FF0FF3030BD4C
:103E2000A342F3D3FBE70120F9E700002DE9F74FA8
:103E300089460646114648461446FFF7DBFF051E35
:103E400012D129463046FFF75EFD024628B93F4BA6
:103E500040F237213E4801F0F7FB0123C0E9043569
:103E6000104603B0BDE8F08FBCBF4B46A1463046BC
:103E7000D9F80410BABF1C4601250025FFF743FD01
:103E8000024618B9314B40F24521E3E7D9F81070EA
:103E90002669C56009F1100309F1140504F1140E37
:103EA00000F1140B05EB87080EEB86060193D9464B
:103EB0004FF0000C019B5EF8040B53F804AF019324
:103EC0001FFA8AF3194683B2CB1A000C6344C0EB85
:103ED0001A4000EB23409BB243EA0043764549F881
:103EE000043B4FEA204CE5D8331B153B23F003037A
:103EF00015340433A64238BF04231D445B441E46D8
:103F00002C4644450ED308F10301491B21F003015F
:103F1000033DA84538BF00210B4453F8041D91B15F
:103F200017619DE754F8041BE646080C1CFA81FC57
:103F3000714400EB2C4089B241EA004146F8041B71
:103F40004FEA204CDDE7013FE7E700BF7986000834
:103F5000EA86000882B08DED000B019A0F4B1340EA
:103F6000A3F15073002B08DC5B42B3F1A07F4FEA52
:103F7000235204DA4FF400231341002208E0A2F197
:103F800014031E2BDABF4FF00042DA400122002357
:103F90001946104641EC100B02B070470000F07F4C
:103FA0002DE9F041066900F1140808EB8606371F79
:103FB00056F8042C1046FFF765FDC0F120030A28CF
:103FC0000B601B4915DCC0F10B0C22FA0CF3B84551
:103FD00043EA010534BF56F8083C0023153002FAC5
:103FE00000F023FA0CF303431C4645EC104BBDE8EC
:103FF000F081B8453ABF56F8083CA6F108070023FF
:104000000B3812D0C0F1200123FA01F48240224380
:10401000474542F07F558CBF57F8042C002283405F
:10402000CA4045F440151343DEE742EA0105DBE7E9
:104030000000F03F2DE9F7430F46012159EC108BAA
:104040001646FFF760FC044630B90246234B24486D
:1040500040F20F3101F0F8FAC9F30A55C9F313031E
:104060000DB143F480130193B8F1000323D06846E7
:104070000093FFF726FDDDE90012D0B1C0F1200367
:1040800002FA03F30B43C24063610192019BA361F7
:10409000002B0CBF012202222261A5B1A5F23345FB
:1040A00005443D60C0F135003060204603B0BDE8F6
:1040B000F0836161EAE701A8FFF703FD019B6361FB
:1040C00020300122E8E704EB8203A0F2324038609E
:1040D0001869FFF7D7FCC0EB4210E5E779860008C6
:1040E000EA8600082DE9F04F85B0CDE9001002A95D
:1040F000FFF756FF009803A955EC104BFFF750FF50
:10410000019B1969009B1B69C91ADDE902329B1AE0
:104110005BEC10AB03EB4113002BCEBF2A46C3EB85
:1041200003335A462F46D946CCBF02EB035702EB66
:1041300003594B46524620463946FCF7FBFB41ECFF
:10414000100B05B0BDE8F08F013970B54911146945
:10415000013102F1140300EB810103EB8404051F1C
:10416000A3420CD3A31A113B23F003031132A24242
:1041700088BF002318440023884205D370BD53F83C
:10418000046B45F8046FEBE740F8043BF4E700F1FB
:10419000140200694B11984210B511DB0ADD11F0D1
:1041A0001F0107D052F8234024FA01F000FA01F170
:1041B0008C420BD102EB8303934203D8002010BD45
:1041C0000346F7E753F8041D0029F5D00120F6E770
:1041D0000346084641B1FF2A04D98A221A604FF0EB
:1041E000FF3070470A700120704700000000000097
:1041F0002DE9F04FD3B08B4691461E46039001F057
:10420000E9F9036816931846FCF762FABBF80C301C
:104210000D901B0615D5DBF8103093B9039840219B
:10422000FDF7A6F9CBF80000CBF8100030B9039ADF
:104230000C2313604FF0FF330F93F7E14023CBF8CB
:1042400014309FED937B0023CDE927338DED0A7B5E
:10425000CDE9183329AC269404930993129317934C
:104260000F934B461D4613F8012B0AB1252AF9D1AD
:10427000B5EB09070DD0289B3B442893279B0133BE
:10428000072BC4E90097279375DC08340F9B3B4448
:104290000F932B78002B01F0488100226B1C8DF8C6
:1042A0007B204FF0FF380E92154613F8012B069233
:1042B0000C93069B203B5A2B00F2A485DFE813F0F9
:1042C0009D00A205A205A500A205A205A2058500E4
:1042D000A205A205A800B200A205AF00B400A20585
:1042E000CE00D100D100D100D100D100D100D10049
:1042F000D100D100A205A205A205A205A205A20532
:10430000A2054701A20508011B014701470147011A
:10431000A205A205A205A205E200A205A2059D0430
:10432000A205A205A205E704A2050805A205A205AB
:104330002A05A205A205A205A205A205A205A205BD
:10434000A2054701A20508011D01470147014701D8
:10435000EE001D010201A205FB00A2057E049F04E0
:10436000D6040201A205E7049B000A05A205A205E6
:104370006500A2059B00039826AA594601F0FEFF9E
:10438000002840F04E8129AC80E7434B199315F08B
:10439000200300F0C284073626F007031A465F6840
:1043A00052F8086B0792EB070AD556EA070307D0C5
:1043B00030238DF87C30069B8DF87D3045F002056A
:1043C00025F48065022300F028BC039801F002F96F
:1043D000436817931846FCF77BF91290039801F095
:1043E000F9F883680993129B2BB1099B1BB11B78C9
:1043F0000BB145F480650C9B57E79DF87B30002B93
:10440000F9D120238DF87B30F5E745F00105F2E77F
:1044100056F8043B0E93002BEDDA5B420E9345F009
:104420000405E8E72B23EDE70C9B13F8012B06921C
:104430002A2A0FD156F8042B0C9342EAE278DAE7E5
:1044400001FB082813F8012B0692069A303A092A34
:10445000F6D92DE74FF000080A21F6E745F0800570
:10446000C9E700220C9B0E920A21069A0E98303A58
:1044700001FB00220E9213F8012B0692303A092A12
:10448000F3D915E745F00805B5E700BFAFF30080A5
:104490000000000000000000508800080C9B1B7802
:1044A000682B01BF0C9B01330C9345F4007518BFBA
:1044B00045F040059FE70C9B1B786C2B05D10C9BAE
:1044C00001330C9345F0200595E745F0100592E780
:1044D000324652F8043B8DF8E430002307928DF801
:1044E0007B309A464FF0010810931F4608931E46F2
:1044F0000DF1E409D2E145F01005AF0612D50736FB
:1045000026F007031A465F6852F8086B0792002FDF
:1045100006DA76424FF02D0367EB47078DF87B30C4
:1045200001237DE33346EE0653F8047B079302D55F
:104530003E46FF17EBE7680603D53EB247F3C037A8
:10454000E5E7A905F4D57EB247F3C017DFE70736E4
:1045500026F00703B3EC027B8DED0A7B07930A9BE1
:104560001A930B9B23F000431B93DDE91A01814B47
:104570004FF0FF32FCF74EFB10BBDDE91A017D4B1B
:104580004FF0FF32FCF728FBD0B9DDE90A01002229
:104590000023FCF717FB10B12D238DF87B30764AF2
:1045A000764B069925F080054729D4BF9146994658
:1045B0004FF0000A4FF00308CDF840A000F0ECBF28
:1045C000DDE90A2310461946FCF724FB824640B178
:1045D0000B9B6B4A002BBCBF2D238DF87B30694BA6
:1045E000DFE7069B612B25D0412B25D158233022B4
:1045F000B8F1630F8DF87C208DF87D3045F0020511
:1046000040F3A580039808F10101FCF7B1FF814652
:10461000002840F0A180BBF80C3043F04003ABF819
:104620000C30BBF80C305B063FF504AE0F9853B06E
:10463000BDE8F08F7823DAE7B8F1FF3F00F08E8015
:10464000069B23F02003472B05D1B8F1000F02D1C0
:10465000C2464FF0010845F4807311930B9B002B69
:104660007FDA0A9B14930B9B03F1004315932D23D0
:104670001C93069B23F02003412B089340F0E68116
:1046800020A89DED140B00F0A9FF00224FF07F53EE
:1046900051EC100BFCF724F802460B46CDE904233D
:1046A00000220023FCF784FA08B101232093364A44
:1046B000364B0699612918BF1A46109208F1FF3748
:1046C0004E46DDE90401324B0022FCF709F80246B0
:1046D0000B46CDE90423FCF7B3FA1390FBF7EAFE8F
:1046E00002460B46DDE90401FBF796FD02460B4648
:1046F000CDE90423139A109B9B5C06F8013B7A1CBE
:1047000006D07B1E1D9300220023FCF751FA70B3E4
:10471000DDE904011F4B0022FCF772FA00283BD1AF
:10472000DDE904011B4B0022FCF742FA10B1139B98
:10473000DB0731D43346F1193020CA1A002A80F23F
:1047400082817B1C0137B8BF00231E4438E04FF044
:10475000000A0DF1E4097EE782467CE74FF0060887
:1047600079E79DED0A7B00238DED147B80E71D9F8B
:10477000A7E700BFFFFFEF7F4088000844880008DC
:10478000488800084C8800085088000861880008A4
:10479000000030400000E03F109B2496D97B302081
:1047A000249A531E249312F8013C8B4200F0488156
:1047B000392B0BBF109B01339B7ADBB202F8013C13
:1047C000A6EB09030493089B209E472B40F08781AA
:1047D000F11C02DB464540F3A581069B023B069394
:1047E00006999DF8182021F02001412908BF0F32B9
:1047F00006F1FF3306BFD2B201210021002B209326
:10480000B8BFC6F101038DF88820B4BF2D222B223A
:10481000092B8DF8892040F378810DF197000A2744
:104820000246B3FBF7F607FB1631303102F8011CE4
:104830001946632900F1FF303346F1DC3033911E15
:1048400000F8013C0DF189060B460DF197008342FB
:10485000C0F056810DF199039B1A814288BF002355
:104860000DF18A021A4422ABD31A049A1893012A32
:1048700003EB020801DCEA0701D50D9B984425F4FF
:104880008065002745F48073119308973E461C9B72
:10489000002B40F08F810023119D1093109B434506
:1048A000B8BF434611939DF87B3013B1119B013380
:1048B000119315F002031C931EBF119B0233119339
:1048C00015F084031D9322D10E9B119A9B1A002B85
:1048D00013931CDD1398DDE9272310289E482060E0
:1048E00002F1010204F1080100F39882139860605C
:1048F0000344072ACDE9272340F3A582039826AA7B
:10490000594601F03BFD002840F0ED8529AC9DF8AB
:104910007B20289B6AB10DF17B02226001221344A7
:104920002893279B62601344072B279300F38D8203
:1049300008341C9A289B62B11FAA226002221344E9
:104940002893279B62600133072B279300F387820C
:1049500008341D9B802B22D10E9B119A9B1A002B91
:1049600013931CDD1398DDE9272310287B48206072
:1049700002F1010204F1080100F37B8213986060E8
:104980000344072ACDE9272340F38882039826AA07
:10499000594601F0F3FC002840F0A58529AC109B96
:1049A000A3EB0803002B10931CDD1098DDE92723EF
:1049B00010286A48206002F1010204F1080100F3A6
:1049C0006F82109860600344072ACDE9272340F3E3
:1049D0007C82039826AA594601F0D0FC002840F0BA
:1049E000828529AC289B1093EA0500F17582434427
:1049F0002893279B0133072BC4E90098279300F3E2
:104A0000B18208346A0700F15085DDE90E2311995F
:104A10008A42ACBF9B185B180F93289B3BB103984D
:104A200026AA594601F0AAFC002840F05C85002324
:104A30002793BAF1000F40F07285079E29ACC6E0BB
:104A400002F8010CACE603F8010B76E6089B462B56
:104A500005D0452B1AD108F10106022101E0464696
:104A6000032124AB019321AB00939DED140B20ABEC
:104A70000398324600F0C4FE089B472B814619D1AB
:104A8000E80705D4249BA3EB09039BE64646E4E72D
:104A900009EB0607DDE9140100220023FCF788F882
:104AA00000B124973022249B9F42EBD9591C2491BA
:104AB0001A70F8E7089B462B00EB0607EAD103784B
:104AC000302B09D1DDE9140100220023FCF770F836
:104AD00010B9C6F101062096209B1F44DAE7089B17
:104AE000462B7FF47DAE05F00103002E43EA080358
:104AF00025DD7BB30D9BF31898446623069333E0C2
:104B000013F8017B06F8017FA1E641B930228DF848
:104B10008A200DF18B02303302F8013BA3E60DF140
:104B20008A02F8E7049B9E420DDA049B0D9A002E40
:104B300003EB02080CDCC6F10103984408E07BB1EA
:104B40000D9B0133D8E7EB0721D50D9B06EB03083E
:104B50006723D3E7B046D0E784880008748800084C
:104B6000662306934FF0010815F4806308931FD065
:104B70000027002E08977FF78AAE099B1B78FF2B32
:104B800007D1089B129A3B4402FB03887FE6B0469C
:104B9000DEE7B342F5DAF61A099B5B7833B1089B7E
:104BA00001330893099B01330993E6E70137E4E7F2
:104BB000089F6CE62D238DF87B306CE6AF060AD596
:104BC0000F9A33680F99D217C3E900120436DDF843
:104BD0003090FFF746BBE80603D533680F9A1A609A
:104BE000F4E7690603D533680F9A1A80EEE7AA0541
:104BF000F3D533680F9A1A70E8E745F0100515F001
:104C0000200320D0073626F007031A465F6852F8C3
:104C1000086B079225F48065002300228DF87B2025
:104C2000B8F1FF3F00F08C8425F08002089256EA2C
:104C3000070240F08A84B8F1000F00F0DB80012BFE
:104C400040F0868483E0324615F0100752F8046B7A
:104C5000079201D01F46DDE715F0400301D0B6B240
:104C6000D8E715F40077D5D0F6B2F3E733467822CB
:104C700053F8046B079347F63003ADF87C30944B40
:104C80001993002745F0020502230692C5E7334633
:104C9000B8F1FF3F53F8049B07934FF000068DF8DF
:104CA0007B600FD0424631464846FBF7C1FC824646
:104CB00000283FF481ACA0EB0908B24610963746B5
:104CC0000896EBE54846FBF703FDB246804673E4E1
:104CD00045F0100515F0200309D0073626F007032C
:104CE0001A465F6852F8086B0792012395E732462F
:104CF00015F0100752F8046B079201D01F46F4E735
:104D000015F0400301D0B6B2EFE715F40077ECD010
:104D1000F6B2F3E76F4BFFF739BB324615F01007D9
:104D200052F8046B079202D01F46FFF73CBB15F008
:104D3000400302D0B6B2FFF736BB15F400773FF45C
:104D400032ABF6B2F0E70A2E77F1000307D2303625
:104D5000F6B28DF847610DF2471900F015BC00233B
:104D60000493089B03F4806352AD10930A2200233E
:104D700030463946FBF7ACFF049B11900133049396
:104D8000109B30328A4605F1FF3905F8012CD3B16A
:104D9000099B049A1B789A4215D1FF2A13D00A2E38
:104DA00077F100030FD3129B1799A9EB03091A4659
:104DB000484600F0FBFB099B5B781BB1099B013364
:104DC0000993002304930A2E77F10007C0F0DC83D7
:104DD000119E57464D46C9E706F00F03199A36094A
:104DE000D35C09F8013D46EA07763F0956EA070316
:104DF000F2D1C9E31BB9E90701D53026A9E70DF5C2
:104E0000A479C1E3069B002B00F08F838DF8E4307A
:104E100000238DF87B300796FFF763BB1020034417
:104E2000072ACDE92723606008DD039826AA5946A2
:104E300001F0A4FA002840F0568329A9139B103BE7
:104E400013930C4646E50C4661E5039826AA59469D
:104E500001F094FA002840F0468329AC69E50398F4
:104E600026AA594601F08AFA002840F03C8329AC72
:104E70006FE510200344072ACDE92723606008DD91
:104E8000039826AA594601F079FA002840F02B83AE
:104E900029A9139B103B13930C4663E50C467EE552
:104EA00010200344072ACDE92723606008DD03981A
:104EB00026AA594601F062FA002840F0148329A975
:104EC000109B103B10930C466FE50C468AE500BF23
:104ED0005088000861880008069B652B40F34682D5
:104EE000DDE90A0100220023FBF762FE00286AD0F8
:104EF000734B236001236360109B01332893279B2E
:104F00000133072B279337DC0834209B049A934204
:104F100002DBEF077FF576AD169B23600D9B0D9AA4
:104F20006360289B13442893279B0133072B279307
:104F30002CDC0834049B5E1E002E7FF763AD614FAE
:104F40004FF01008DDE92732102E03F1010304F1C0
:104F50000801276024DC6660072B1644CDE927365C
:104F600040F3A082039826AA594601F007FA0028C8
:104F700040F0B98229AC45E5039826AA594601F0CC
:104F8000FDF9002840F0AF8229ACBEE7039826AABD
:104F9000594601F0F3F9002840F0A58229ACC9E791
:104FA0001032072BCDE92732C4F8048008DD0398BE
:104FB00026AA594601F0E2F9002840F0948229A976
:104FC000103E0C46BEE7209B002B7DDC3C4B236053
:104FD00001236360109B01332893279B0133072B28
:104FE000279346DC08340499209B289A0B4305F04C
:104FF00001010B433FF406AD169B23600D9B6360DC
:105000001A44279B28920133072B27933BDC04F19A
:105010000803209E002E1BDA2A4F76421A461024DF
:10502000DDE92710102E01F1010103F108031760DB
:1050300033DC566007290644CDE9271608DD0398BE
:1050400026AA594601F09AF9002840F04C8229AB73
:10505000049A04995A60289AC3F800900A44289246
:10506000279A0132072A27923FF77CAF03F1080401
:10507000C8E4039826AA594601F080F9002840F0B8
:10508000328229ACAFE7039826AA594601F076F997
:10509000002840F0288229ABBBE710300729CDE972
:1050A0002710546008DD039826AA594601F066F9D6
:1050B000002840F0188229AB103E1A46B0E700BF26
:1050C0007288000874880008049B4B440693049B74
:1050D000B342A8BF3346002B98460BDDC4E90093CA
:1050E000109B43442893279B0133072B279300F3FE
:1050F000898008344346002BACBFA6EB0808B046B5
:10510000B8F1000F1BDDDDE9272397482060B8F1D7
:10511000100F02F1010204F108017DDC4344072A6B
:10512000CDE92723C4F8048040F38A80039826AA97
:10513000594601F023F9002840F0D58129AC09EB4C
:1051400006086E0508D5089B002B7BD1002F7BD16C
:10515000069B984528BF9846209B049A934201DB02
:10516000E8070ED5169B23600D9B0D9A6360289B64
:1051700013442893279B0133072B279300F3DF80E9
:105180000834049B209FDF1B069BA3EB08039F4270
:10519000A8BF1F46002F289B0ADD3B442893279B6E
:1051A0000133072BC4E90087279300F3D28008342A
:1051B000209E049B002FA3EB0606A8BFF61B002E23
:1051C0007FF720AC684F4FF01008DDE92732102E32
:1051D00003F1010304F1080127607FF7BCAE103230
:1051E000072BCDE92732C4F8048008DD039826AAEE
:1051F000594601F0C3F8002840F0758129A9103EF6
:105200000C46E2E7039826AA594601F0B7F80028B1
:1052100040F0698129AC6DE710200344072ACDE9ED
:105220002723606008DD039826AA594601F0A6F8F6
:10523000002840F0588129A9A8F110080C4662E71F
:105240000C467CE7002F4AD0013F179B2360129B3E
:10525000129A6360289B13442893279B0133072BE2
:10526000279343DC0834099B1A78069BA3EB0803B9
:105270009A42A8BF1A46002A289B914609DD13448A
:105280002893279B0133072BC4E90082279337DC3F
:105290000834099B1E78B9F1000FA8BFA6EB0906D8
:1052A000002E18DDDDE927322F482060102E03F193
:1052B000010304F108012DDC6660072B1644CDE9DB
:1052C00027363ADD039826AA594601F057F80028F8
:1052D00040F0098129AC099B1B78984433E7099B6E
:1052E000013B0993089B013B0893AEE7039826AA6C
:1052F000594601F043F8002840F0F58029ACB2E7A8
:10530000039826AA594601F039F8002840F0EB80AE
:1053100029ACBEE710200244072BCDE9273260609C
:1053200008DD039826AA594601F028F8002840F025
:10533000DA8029A9103E0C46B4E70C46CBE7039867
:1053400026AA594601F01AF8002840F0CC8029AC72
:1053500017E7039826AA594601F010F8002840F0F4
:10536000C28029AC24E700BF748800080499109B10
:10537000279A012903F1010302F1010204F1080651
:1053800002DCE90740F183800121072ACDE92723C8
:10539000C4F80090616008DD039826AA594600F021
:1053A000EDFF002840F09F8029AE169B33600D9BD7
:1053B0000D9A7360289B13442893279B0133072B76
:1053C000279333DC0836049BDDE90A015C1E0022CA
:1053D0000023DDE92787FBF7EBFB00282FD109F13C
:1053E0000102C6E90024049A08F10103013F1744B1
:1053F000072BCDE9273753DD039826AA594600F03D
:10540000BDFF00286FD129AE22AB3360189B189ADC
:105410007360289B13442893279B0133072B279302
:105420003FF7A0AD06F10804FFF7ECBA039826AAEF
:10543000594600F0A3FF002855D129AEC3E7049BCD
:10544000012BE1DD574F4FF01008DDE92732102C1A
:1054500003F1010306F10801376007DC7460072BD4
:105460001444CDE92734C7DC0E46CDE71032072BB4
:10547000CDE92732C6F8048006DD039826AA5946EE
:1054800000F07CFF78BB29A9103C0E46DDE7012126
:10549000072ACDE92723C4F800906160B4DDABE7AB
:1054A0000836B1E70C46FFF7ADBA0E9B119A9D1A6C
:1054B000002D7FF7AAAA3C4E1027DDE92732102DD8
:1054C00003F10103266018DC2A44072BCDE92732BB
:1054D00065607FF79AAA039826AA594600F04EFF06
:1054E00000283FF492AABAF1000F3FF49AA803985B
:1054F0005146FBF77DFFFFF794B81032072BCDE93B
:105500002732676002DC0834103DD6E7039826AAEC
:10551000594600F033FF0028E5D129ACF4E70398A1
:105520005146FBF765FFFFF788BA289B002B3FF435
:1055300078A8039826AA594600F020FFFFF771B813
:1055400056EA070208953FF47AAB012B3FF4FBAB18
:10555000022B0DF5A4793FF43FAC06F00703F608E3
:1055600046EA4776FF08303356EA07014A4609F80B
:10557000013DF2D10899C80706D5302B04D030235D
:1055800009F8013CA2F1020952AB089DCDF8408018
:105590004FF0000AA3EB09085746CDF820A0564665
:1055A000FFF77CB9748800088488000810B50139B9
:1055B000034632B111F8014F03F8014B013A002CB8
:1055C000F7D11A440021934200D110BD03F8011B0A
:1055D000F9E70000004870474406002070B500213C
:1055E00055EC104B0160154925F000428A420646F1
:1055F0002B4620D8214611431DD01149294061B9BD
:10560000104B002220462946FBF76AF80B4621F092
:1056100000426FF03501044631603168121523F005
:10562000FF43A2F2FE3223F4E003114443F07F551E
:10563000316045F4001545EC104B70BDFFFFEF7F66
:105640000000F07F000050431FB514461A46094B76
:105650001B680546D86854B9074B1C46CDE9013490
:1056600000912B46054900F077FE01F025FE044B22
:10567000F4E700BF0C000020CF880008A1880008D4
:105680009488000838B5A1FB021535B9FBF770FF07
:10569000044638B90024204638BDFCF723FB0C2310
:1056A0000360F7E750F8042C22F00302043A242A9E
:1056B00019D8132A15D91B2AC0E9005506D800F1BC
:1056C00008030022C3E900229A60E4E7242AC0E923
:1056D000025511BF00F11003056100F11803456187
:1056E000EFE70346EDE72946FBF7A5FDD3E72DE9F4
:1056F000F74F03690C69A34207467EDB013C01F1C9
:105700001408A30000F11405009305EB8403019332
:1057100058F8243055F8242001339A4208EB8409C4
:10572000B2FBF3F62ED34FF0000AC446AE46D34682
:105730005CF8043B98B206FB00A0020C1B0C06FBB5
:105740000323DEF8002080B292B2121A5A44DEF827
:1057500000004FEA134A9BB2C3EB224303EB104312
:1057600092B242EA0342E1454EF8042B4FEA234B42
:10577000DED2009BEB582BB9019B043B9D421A469D
:105780002FD33C613846FEF735FB002825DB294640
:10579000002058F8042BD1F800C01FFA82FE1FFA2F
:1057A0008CF3A3EB0E030344120CC2EB234202EB77
:1057B0001C429BB243EA0243C14541F8043B4FEA15
:1057C0002240E6D255F8242005EB840322B9043B9D
:1057D0009D421A460BD33C610136304603B0BDE80A
:1057E000F08F1268043B002ACBD1013CC6E7126857
:1057F000043B002AEFD1013CEAE70020EEE700007D
:105800002DE9F04F99B08DED020B0991816B229E2D
:105810000E9255EC104B8346139349B1C26B4A600C
:10582000012393408B60FEF793F80023CBF83830C8
:105830002B1EB9BF23F00043039300233360039F63
:10584000974BBCBF01223260BB4314D1139A42F282
:105850000F731360C7F31303234300F04C85239B9E
:10586000DFF854A21BB10AF10303239A13605046D8
:1058700019B0BDE8F08F9DED027B002251EC170BB3
:1058800000238DED0C7BFBF793F9804650B1139A02
:1058900001231360239B13B1239A824B1360DFF81B
:1058A0001CA2E4E79DED0C0B16AA17A95846FEF7BB
:1058B000C1FBC7F30A568146002E77D00D9BCDF869
:1058C0005080C3F31303DDE90C0143F07F5343F42D
:1058D0004013A6F2FF3619460022734BFAF79CFCE0
:1058E00069A3D3E90023FAF7FBFE69A3D3E90023F8
:1058F000FAF794FC044630460D46FAF7DBFD66A342
:10590000D3E90023FAF7ECFE02460B46204629466F
:10591000FAF784FC04460D46FBF792F9002207468D
:10592000002320462946FBF74DF940B13846FAF7E7
:10593000C1FD22462B46FBF73BF900B9013F162F6C
:1059400051D85A4B03EBC703D3E90023DDE90C011F
:10595000FBF738F9002848D0013F00231293169B2B
:105960009B1B5A1E44BFC3F101080023089254BF79
:105970004FF000080893002F39DB089B0F973B443A
:10598000089300230A93099B092B65D8052BC4BFF4
:10599000043B0993099BA3F10203CCBF002401241B
:1059A000032B64D8DFE803F02A373556DDE91663A8
:1059B0001E4406F23243202BC1BFC3F140039F4077
:1059C00006F2124324FA03F3D6BFC3F1200347EAD9
:1059D000030004FA03F0FAF75DFD0122A1F1F87368
:1059E000013E149277E70123B8E71290B7E77B42B4
:1059F0000A930023A8EB07080F93C4E700230B9337
:105A00000E9B002B36DC0123009307931A460E925F
:105A10000BE00123F3E700230B930E9BFB1800938D
:105A20000133012B0793B8BF01230021042202F1A7
:105A30001400984222D9CBF83C105846FDF763FF7A
:105A4000824600283CD11A4B024640F2AF11194859
:105A5000FFF7FAFD0123DFE70124002309930B94EC
:105A60004FF0FF330093079300221223CFE7012367
:105A70000B93F5E70E9B00930793D6E70131520095
:105A8000D5E700BFAFF3008061436F63A787D23FC4
:105A9000B3C8608B288AC63FFB799F501344D33F1D
:105AA0000000F07F738800080000F83F7887000846
:105AB00079860008DD880008D98800087288000807
:105AC000079BCBF838000E2B00F2A480002C00F0CE
:105AD000A180002F33DDAE4B07F00F0203EBC203B2
